:020000040800F2
:10000000000002208906000885060008854F0008C8
:100010008506000885060008850600080000000027
:10002000000000000000000000000000850600083D
:10003000850600080000000085060008094F00083A
:100040008506000885060008850600088506000864
:100050008506000885060008850600088506000854
:10006000850600088506000885060008393B00085B
:10007000453B000885060008513B00085D3B000831
:10008000B94900086930000885060008850600089F
:100090008506000885060008850600088506000814
:1000A0008506000885060008850600088506000804
:1000B000010201080D020108190201089D30000823
:1000C00085060008A93000088506000871FA0008B6
:1000D0007DFA0008ED470008194800084D4800085F
:1000E0008506000885060008000000008506000857
:1000F00085060008850600088506000885060008B4
:1001000085060008850600082502010889FA00080E
:1001100081480008B54800088506000885060008E3
:100120008506000885060008ADFA0008E1FA000817
:10013000ED490008850600088506000885060008C8
:1001400000000000000000000000000000000000AF
:10015000850600088506000885060008E9480008AD
:10016000B530000885060008194F00083D4F00080B
:1001700085060008614F000885060008850600080E
:1001800085060008850600081D4900085149000839
:1001900095FA0008A1FA00088506000885060008FF
:1001A0008506000885060008850600088506000803
:1001B00059380008850600088506000885060008ED
:1001C00085060008850600082DF2000839F20008AF
:1001D0008506000845F20008850600088506000827
:1001E00085060008850600088506000885060008C3
:1001F00085060008850600088506000885060008B3
:1002000085060008850600088506000885060008A2
:100210008506000885060008850600088506000892
:100220008506000885060008850600080000000015
:100230008506000885060008000000008506000805
:100240008506000885060008850600088506000862
:100250008506000885060008850600088506000852
:100260008506000885060008850600088506000842
:100270008506000885060008854900080000000082
:1002800085060008850600088506000800000000B5
:080290000000000085060008D3
:1002A00010B5054C237833B9044B13B10448AFF3B0
:1002B00000800123237010BD100600240000000000
:1002C000C036010808B5034B1BB103490348AFF31F
:1002D000008008BD0000000014060024C03601089C
:1002E00001F0FF01102A2BDB10F0070F08D010F8E7
:1002F000013B013A8B422DD010F0070F42B3F6D1EB
:10030000F0B441EA012141EA014122F007047FF003
:1003100000070023F0E80256083C85EA010586EA5A
:10032000010685FA47F5A3FA87F586FA47F6A5FA96
:1003300087F68EB9EED1F0BC01F0FF0102F00702A2
:1003400032B110F8013B013A83EA010313B1F8D14D
:100350000020704701387047002D06BF354603382E
:10036000073815F0010F07D1013015F4807F02BF67
:10037000013015F4C03F0130F0BC0138704700BFB8
:1003800053B94AB9002908BF00281CBF4FF0FF31FC
:100390004FF0FF3000F074B9ADF1080C6DE904CEF8
:1003A00000F006F8DDF804E0DDE9022304B0704750
:1003B0002DE9F047089D04468E46002B4DD18A4218
:1003C000944669D9B2FA82F252B101FA02F3C2F14B
:1003D000200120FA01F10CFA02FC41EA030E9440DC
:1003E0004FEA1C48210CBEFBF8F61FFA8CF708FBFD
:1003F00016E341EA034306FB07F199420AD91CEBD5
:10040000030306F1FF3080F01F81994240F21C8106
:10041000023E63445B1AA4B2B3FBF8F008FB10334E
:1004200044EA034400FB07F7A7420AD91CEB040483
:1004300000F1FF3380F00A81A74240F20781644453
:10044000023840EA0640E41B00261DB1D4400023D8
:10045000C5E900433146BDE8F0878B4209D9002D3C
:1004600000F0EF800026C5E9000130463146BDE8C6
:10047000F087B3FA83F6002E4AD18B4202D3824230
:1004800000F2F980841A61EB030301209E46002DDF
:10049000E0D0C5E9004EDDE702B9FFDEB2FA82F234
:1004A000002A40F09280A1EB0C014FEA1C471FFA92
:1004B0008CFE0126200CB1FBF7F307FB131140EA79
:1004C00001410EFB03F0884208D91CEB010103F146
:1004D000FF3802D2884200F2CB804346091AA4B208
:1004E000B1FBF7F007FB101144EA01440EFB00FEDC
:1004F000A64508D91CEB040400F1FF3102D2A64541
:1005000000F2BB800846A4EB0E0440EA03409CE7DF
:10051000C6F12007B34022FA07FC4CEA030C20FA8C
:1005200007F401FA06F31C43F9404FEA1C4900FAAC
:1005300006F3B1FBF9F8200C1FFA8CFE09FB181129
:1005400040EA014108FB0EF0884202FA06F20BD99C
:100550001CEB010108F1FF3A80F08880884240F2EC
:100560008580A8F102086144091AA4B2B1FBF9F030
:1005700009FB101144EA014100FB0EFE8E4508D92B
:100580001CEB010100F1FF346CD28E456AD90238B0
:10059000614440EA0840A0FB0294A1EB0E01A14295
:1005A000C846A64656D353D05DB1B3EB080261EB03
:1005B0000E0101FA07F722FA06F3F1401F43C5E9DD
:1005C000007100263146BDE8F087C2F12003D84013
:1005D0000CFA02FC21FA03F3914001434FEA1C4755
:1005E0001FFA8CFEB3FBF7F007FB10360B0C43EA47
:1005F000064300FB0EF69E4204FA02F408D91CEBF7
:10060000030300F1FF382FD29E422DD902386344F4
:100610009B1B89B2B3FBF7F607FB163341EA034194
:1006200006FB0EF38B4208D91CEB010106F1FF38E3
:1006300016D28B4214D9023E6144C91A46EA0046DA
:1006400038E72E46284605E70646E3E61846F8E66C
:100650004B45A9D2B9EB020864EB0C0E0138A3E7B5
:100660004646EAE7204694E74046D1E7D0467BE796
:10067000023B614432E7304609E76444023842E70E
:10068000704700BFFEE700BF0B480C4A904203D002
:10069000121A0B4911F020FD0A480B4A904203D070
:1006A000121A002111F026FD04F0CAFE11F0E8FC38
:1006B00000F076F9FEE700BF000000240C060024DD
:1006C000F436010810060024B8830424704700BFE4
:1006D00013460248D1E9001200F090BC2C06002419
:1006E0002DE9F04F574885B0DFF894B10124DFF8C9
:1006F00094A100F01BFD0021524800F0FDFDDFF841
:10070000888130214F485F4656464F4DA14600F044
:1007100017FD4E4800F0DAFCA9F10203052B7ED844
:10072000DFE803F078736E695203494B00244948AF
:100730001B8822460094ADF80C300223039902F086
:1007400067F9414B8BF806408AF806409C613F4AA6
:100750003C49414800F08EFB3A4800F0EDFC3B4933
:100760003E4800F047FC394800F0D8FC04463748C2
:1007700000F0D2FC3A4B8078D91D03F8014F0219E2
:100780008B42D4B2F9D137492E4800F0D1FC012177
:100790002C4800F0F1FC4FF4FA7004F065FC0021E5
:1007A000284800F0E9FCC82004F05EFC012125483F
:1007B00000F0E2FCC82004F057FC0021214805B0FD
:1007C000BDE8F04F00F0D8BC274B1B88ADF80C30CB
:1007D00000240223039940462246009402F018F9AF
:1007E0003C7034702C6009F1010908F114080137DC
:1007F0000136043590E71D4B1B88ADF80C30E7E758
:100800001B4B1B88ADF80C30E2E71A4B1B88ADF888
:100810000C30DDE7184B1B88ADF80C30D8E7174BD0
:10082000002440461B8822460094ADF80C30022379
:10083000039902F0EDF8B9F1070F3C7034702C60A9
:10084000D1D184E784FE0224C4FE02245CFE02248B
:100850008031010838FE0224E0FE02242C06002428
:100860004BFE0224D10600087C31010878310108D2
:1008700074310108703101086C31010868310108D8
:1008800054FE02242C250424C0FD02242DE9F04F3F
:10089000394D83B004F0E6FB384FDFF8FC90834617
:1008A000374E05F18C0ADFF8F480284602F096F9FD
:1008B00018F8013F044683420CD03368ABEB0303C6
:1008C000142B07D93B7888F80000C6F800B058B957
:1008D0000BBB3C701435013709F10109043655454D
:1008E000E3D103B0BDE8F08F002BF2D199F80030CE
:1008F0002448009300F010FC03792248019300F093
:1009000013FC48BB1F4800F00DFCF8B901211E483C
:1009100000F032FCDDE799F800301A48009300F04F
:1009200003FC20BB174800F0FDFBD8B91748002195
:10093000C31F13F8012F002A18BF11469842F8D19F
:100940000029C6D1104800F017FCC2E7DDE900120B
:100950000F4800F067FBD9E7DDE900120D4800F011
:1009600009F9CFE700990A4800F090FBDEE700990B
:10097000084800F059F9D5E7C0FD02242C250424CD
:10098000C4FE02245CFE022484FE02245AFE0224D9
:100990002C060024E0FE02244CFE022453FE022416
:1009A00008B5FFF79DFEFFF771FF034800F00AFA54
:1009B000012004F059FBF6E7E0FE022408B51A48CE
:1009C00000231A4A036043610362C363184911F0AC
:1009D0004FF9184800F074FB144A1749154811F0F4
:1009E00047F9164800F06CF8104A1549134811F001
:1009F0003FF9144800F06EFA0C4A1349114811F0FF
:100A000037F9124B03F18C0C143300220B20FF2119
:100A1000634543F8102C03F8140C03F8131C43E946
:100A20000322F1D108BD00BF84FE0224000000248F
:100A3000CD0600085CFE0224C9100008E0FE022476
:100A4000710B00082C060024F10F0008C0FD0224E1
:100A500070B500F5903482B006460D4694F8AD327C
:100A60008DF8052013F0FD0F8DF8041002D194F8D5
:100A7000AF22D2B9013B012B0CD9D4F8B83584F898
:100A8000C0550133C4F8B83504F0ECFAC4F8BC051D
:100A900002B070BD94F8B032002BEED0022201A952
:100AA00006F1180004F0C2F8E7E749F26C100222E0
:100AB00001A9304401F078FF94F8AD32DAE700BFC5
:100AC000F8B500250446083040F2011604F1D807B5
:100AD000C4E9005501F070FD49F21C2004F51041F5
:100AE000802247F6707E40F20F7C2044A56184F896
:100AF000C12004F59033A4F8C2E0A4F8C4C0C4F83F
:100B0000CC60C4F8C870C4E93455C1E98306032039
:100B1000A1F806E2A1F808C281F869014FF00110BE
:100B200081F86851C1F86C5181F80522C1E98555F9
:100B3000C3F8AC021820294683F8B052A3F848063F
:100B40000A48A3F8B455204483F8B655C3F8B855FD
:100B5000C3F8BC5583F8C05583F84156C3F84456D2
:100B600083F84A5611F0C6FA2046F8BDC1250100A7
:100B7000704700BF00F5903C9CF8AE32002B3FD090
:100B80000B063DD413063BD49CF8B6353F2B33D827
:100B9000F0B59CF8AC425D1C9CF8B535013C1D4F8E
:100BA00003EB430E1C4E04F00F04013300EB8E0EDA
:100BB000084464F06F0403F03F030EF80740174C3D
:100BC0000EF806100EF804200124154A0EF8024013
:100BD000043ADCF8BC454EF802408CF8B535114BB0
:100BE0008CF8B655C25C32B90122C2549CF8413629
:100BF00013448CF84136F0BD08440A4BC25C02B184
:100C000070470122C2549CF8413613448CF8413697
:100C1000704700BFB4220100B5220100B6220100D6
:100C2000BC220100C125010000F5903292F8AE32DD
:100C3000002B40D00B063ED492F8B6353F2B36D869
:100C400030B55C1C92F8AC3292F8B5C5013B1F4D33
:100C50000CEB4C0E0CF1010C03F00F0300EB8E0EAD
:100C60000CF03F0C63F07F0308440EF8053040257C
:100C7000174B0EF8031001330EF80350063301250D
:100C80000EF80350043BD2F8BC554EF80350114BFC
:100C900082F8B5C582F8B645C15C39B10021C154AE
:100CA00092F8413613B1013B82F8413630BD084419
:100CB000084BC15C01B970470021C15492F841361C
:100CC000002BF8D0013B82F841367047B422010076
:100CD000B5220100C125010070B500F5903482B045
:100CE00094F8B635002B58D0054694F8B43533E067
:100CF00094F8AE2222B32F4E2F48304A94F8AD32EA
:100D00008E5D085C13F0FD0F8A5C8DF804608DF831
:100D100005008DF8062003D194F8AF22002A3ED1B9
:100D2000013B012B2ED9D4F8B83584F8C0650133C6
:100D3000C4F8B83504F096F994F8B435C4F8BC0595
:100D400094F8B6250133013A03F03F03D2B284F898
:100D5000B43584F8B62502B303EB4301184A05EB1A
:100D600081018A5C002AC3D194F8AE22002AE7D020
:100D7000104B2846104A8A5CC95CFFF769FE94F85C
:100D8000B435DDE794F8B032002BCCD0032201A9B2
:100D900005F1180003F04AFFC5E702B070BD49F243
:100DA0006C10032201A9284401F0FEFD94F8AD3235
:100DB000B6E700BFB4220100B5220100B62201004F
:100DC000BC22010010B5012300F5903484F8AF3245
:100DD00084F8B032FFF780FF04F044F9C4F8BC0592
:100DE00010BD00BF2DE9F04194B0044601AD04F1FF
:100DF0001808284601F0E0FB0DF1140E04F1080C70
:100E000095E80F008CE80F008EE80F0001234FF0EB
:100E1000000E09AD0F93129347F61223139302238A
:100E2000CDE910E39CE80F00D4E9047685E80F00D3
:100E3000BDF828300E90ADF83630C4E90776BDF81D
:100E40002A30ADF8343026B132467146384611F0BA
:100E500051F90DA9404603F07FFE04F12C0001F08A
:100E6000BFFB04F59034012384F8B03214B0BDE820
:100E7000F08100BF70B50446C0E9001232B304F53A
:100E80009036104600F04CF986F8AC0249F268152D
:100E900004F510434FF440722544A3F86821281D3F
:100EA000D3F8681101F056FD05F1080001F098FB38
:100EB0000123204686F8AF32FFF794FF0023C6F8DF
:100EC000B83504F0CFF8C6F8BC0570BD00F5903613
:100ED000DCE700BF10B53F49002400F108030246DB
:100EE00000F6C80E046041608C330021DFF8FCC0BE
:100EF0000024734543F8601C43F85C1C43F858CC4D
:100F000043F8541C43F850CC43F84CCC43F848CC3D
:100F100043F8441C43F8401C43F83C1C03F8344C91
:100F200003F8334CE0D100F53C3300F6CC0C9FEDD8
:100F30002A7AF5EE007AA0F8C8484FF07C5E8CED76
:100F4000007A03F5ED6C80F8D048CCF8001003F27D
:100F50006C7C9FED227ACCF800104FF0010C83F8E6
:100F600070C703F2747C8CED007A03F27C7C83F80A
:100F70007847CCED007A03F5F06CDFED197ACCED13
:100F8000007A03F2847CDFED177ACCED007A03F56A
:100F9000F16C03F5F263CCF800E000F50C6C43F85B
:100FA000044C19608C32002300210F4C624502F87A
:100FB000183C02F8173C02F8163C42F8144C42F870
:100FC000101C02F80C3C1160516042E90233E9D177
:100FD00010BD00BF00803B47CDCC4C3F9A99993E55
:100FE000CDCCCC3E00007A440000DC43000080BF42
:100FF000704700BF80ED010A0160704783B1084669
:10100000002110B5144682B09A00019211F072F8D6
:10101000019A0021204602B0BDE8104011F06AB8E4
:10102000704700BF70B500230646044694F874501C
:101030008C341DB10133102BF8D170BD8C24F2EE2D
:10104000080A0125B0EE000A04FB036484F8751059
:10105000453984F8745007EE901A84F87620F8EE3B
:10106000E77AC7EEA00A10F00BFEDFED077A84F8EE
:10107000805020EE270A84ED1E0A96F8C8382B44CB
:1010800086F8C83870BD00BF0000DC43002203466C
:1010900010B493F874401CB193F875408C4206D09C
:1010A00001328C33102AF4D15DF8044B70478C2147
:1010B00004235DF8044B01FB020080F88030704788
:1010C00000228284704700BF704700BF4FF4B272A5
:1010D00001210B4B4FF0000C82800A4A8171C260E3
:1010E000094A0A4942610A4A836080F810C0816156
:1010F0000362C26110B4074C04605DF8044B704792
:101100009A99993ECDCC4C3F0AD7233CCDCCCC3DCF
:101110003333333F073C0201704700BF40787047CC
:10112000C07870478079704740797047704700BF3A
:10113000143001F00DBA00BF143001F005BA00BF41
:1011400038B500F1140504462DED028B284601F058
:10115000EDF9284601F0F8F92846B0EE408A01F092
:10116000E1F9D0ED007AF8EE677A88EE277ABDECE7
:10117000028B84ED0E7A38BD253001F021BE00BF10
:1011800010B540F203338EB000244FF60B7240F2DC
:101190000341ADF8083009A80123ADF81020ADF8DF
:1011A00024202246ADF80C100094029907940C9468
:1011B000CDE90544CDE90A4401F02AFC04A8012345
:1011C00022460399009401F023FC09A801F006FDD2
:1011D00010B901200EB010BD04A801F0FFFCA04220
:1011E0000CBF022020460EB010BD00BF2DE9F0411B
:1011F00003239AB0012700240646CDE914373B4B60
:10120000CDE9104340F20453CDE91647ADF848301C
:10121000FFF7B6FFB842054625D0022845D040F674
:101220000132334B0DF12C081894ADF82C200B989B
:101230001997CDF84A3000F0E3F810A906F13C0008
:1012400002F006FD302003224FF07E5341460D93FD
:101250000E93CDE90B02F26B06F1140001F02AF9AE
:101260001AB0BDE8F0811023214A06A906908DF836
:1012700028300DF12C081F4BCDF84A20079302941B
:10128000CDE91804CDE9080402A801F019FF0823EC
:10129000029A03A94046ADF80C508DF80E40049513
:1012A00005930B9400F0ECF8C7E700200121104BE8
:1012B0000DF12C083A460094CDF84A304FF60B73E6
:1012C0000C94ADF82C302346CDE9180140F60131DD
:1012D0004046ADF818100699CDE90D4401F098FB91
:1012E0002146404601F086FCA7E700BF0402040443
:1012F000040604030704010B2DE9F04704462DED15
:10130000028B82B000294DD0012140F2011200234E
:101310000091ADF804208DF80630364A0127364B8F
:1013200004F10409354904F12908626040F20272AF
:10133000A36040F60663E16004F1250AA4F82520C5
:10134000A4F82930278284F8277084F82B7004F0E1
:101350002DF8054603F090FE6946064650BB4DB396
:1013600004F130008DF8067003F0A8FF072D3CD182
:1013700004F114052046FFF739FF284601F0E4F890
:101380002846B0EE408A01F0CDF8D0ED007AF8EEB4
:10139000677A88EE277A84ED0E7A02B0BDEC028B74
:1013A000BDE8F08740F2011300918DF80610ADF80A
:1013B0000430B2E704F1300003F080FF072D11D0B4
:1013C0004946204602F0C4F80EB9002DD0D150464F
:1013D00001F01AFC404601F017FC04F1120000F085
:1013E00079F9C5E7002EF2D1C2E74946204602F05E
:1013F000AFF8BDE70508050905070506050A060655
:1014000010B584B003460124ADF8040003A8ADF87C
:101410000C30ADF80E4001F0F7FB214603A801F0B7
:10142000CFFC204603F020FE002103A801F0C8FCF9
:10143000204603F019FE214603A801F0C1FC04B0C8
:1014400010BD00BF10B5C2F3002384B00C46017C70
:101450008DF80D2043EA4402FA2402238DF80C2073
:1014600003AA009401F0C2FE18B10124204604B082
:1014700010BD04460A2003F0F7FD204604B010BD5D
:10148000034670B543F8042B044684B007C983E8CB
:101490000700A37983B91A210B461E22FA2523746B
:1014A0002046ADF80C20022303AA009501F09EFE11
:1014B00028B1012004B070BD1B210B46EDE70A20C6
:1014C00003F0D2FD4FF4B85200950223ADF80C2082
:1014D000204603AA217C01F089FE0028E9D10A20D8
:1014E00003F0C2FD41F2027200950223ADF80C2018
:1014F000204603AA217C01F079FE0028D9D10A20D8
:1015000003F0B2FD042200950223ADF80C20204622
:1015100003AA217C01F06AFE0028CAD10A2003F048
:10152000A3FD062200950223ADF80C20204603AA55
:10153000217C01F05BFE0028BBD10A2003F094FD62
:1015400041F2082200950223ADF80C20204603AAA0
:10155000217C01F04BFE0028ABD10A20064603F0A7
:1015600083FD0095022303AA217C2046ADF80C6080
:1015700001F03CFE00289CD1304603F075FD00953B
:1015800022790C232046002A8DF80C3003AA4FF054
:10159000020314BF622142218DF80D10217C01F05D
:1015A00025FE002885D1304603F05EFD2279D4E97E
:1015B00002310B43DBB20AB943F0400362790AB14E
:1015C00043F020030E22FA258DF80D3020460095B9
:1015D00002238DF80C2003AA217C01F007FE0028CD
:1015E0007FF467AF0A2003F03FFD1022009502232D
:1015F000ADF80C20204603AA217C01F0F7FD00285D
:101600007FF457AF0A2003F02FFD1221009502232B
:10161000ADF80C1003AA217C204601F0E7FD00285C
:101620007FF447AF0A2003F01FFD01220921204665
:10163000FFF708FF003818BF01203BE7F0B5102383
:1016400087B0234C012200250126002702A920464D
:101650000195CDE902234FF48052CDE904670AF0E9
:10166000F1F8642004F07CFA02A94FF4805220467D
:10167000CDE9046702261027CDE902670AF0E2F8F7
:101680000322102302A92046CDE9022300230422CD
:10169000CDE904234FF480520AF0D4F840F232230B
:1016A000042202A9019310232046CDE90223019AC6
:1016B000012305924FF4805204930AF0C3F840F6D8
:1016C000060120460AF0DEF8284607B0F0BD00BF4C
:1016D0003C2504241C4B00221C494FF0400C30B523
:1016E000054689B00220596007219A601A620124D8
:1016F000DA620A224FF4006EDC6006922022CDE905
:10170000000104200821CDE9020103201021CDE9C8
:10171000040108206946C3E904024FF4C072181D91
:10172000C3E906C24FF48052C3E909E20AF060F847
:1017300038B92846FFF782FF003818BF012009B0EA
:1017400030BD204609B030BD382504244041005248
:10175000614A0021D0B513688EB00A91002B40F089
:10176000B9805E4B01214FF683700C241160022179
:10177000D3F8D4200026032742F48052C3F8D420A3
:10178000D3F8D42002F480520092009AD3F8E020DB
:1017900042F01002C3F8E020D3F8E02002F010027B
:1017A0000192019AD3F8E02042F04002C3F8E02011
:1017B000D3F8E02002F040020292029AD3F8E0202F
:1017C00042F00802C3F8E020D3F8E02002F008025B
:1017D0000392039AD3F8E02042F48072C3F8E02029
:1017E000D3F8E02002F480720492049AD3F8E02047
:1017F00042F08002C3F8E020D3F8E02002F080023B
:101800000592059AD3F8E02042F02002C3F8E020C8
:10181000D3F8E02002F020020692069AD3F8E020E6
:1018200042F00402C3F8E020D3F8E0300C9403F057
:10183000040307930323079A0B93CDE9080108A932
:10184000274805F033FA48F23712022308A9254841
:101850000C94CDE90823CDE90A6705F027FA4CF28C
:101860000372022308A920480C94CDE90823CDE98E
:101870000A6705F01BFA40F2FF62022308A91B4821
:101880000C94CDE90823CDE90A6705F00FFA4FF66D
:101890000C72022308A916480C94CDE90823CDE95F
:1018A0000A6705F003FA4FF63F02022308A9114820
:1018B0000C94CDE90823CDE90A6705F0F7F9202259
:1018C000022308A90A480C94CDE90A67CDE9082348
:1018D00005F0ECF90EB0D0BD3425042400440258C4
:1018E0000010025800180258000C0258002002583C
:1018F000001C0258001402582DE9F04FDFF8108444
:1019000006460D46144608F118002DED028B89B0ED
:1019100000AF02F095FAD8F8183073B3D8F81C303D
:10192000D8F80490002B43690BBF4FF0080A4FF022
:10193000100A4FF0020B4FF0040BB9F1000F2AD040
:10194000A200EA46012B02F1070222F00702ADEBEA
:10195000020D6846ADEB020D694600F03F81022B97
:1019600000F0D680002B6FD02246C847D5462437DA
:10197000BD46BDEC028BBDE8F08FD8F81C30002BC3
:10198000F5D0D8F804904FF0080A4FF0020B4369E5
:10199000B9F1000FD4D1FB61D8F80030BB61002B46
:1019A000E5D0D54802F0BEFA6B46BBF1020F786174
:1019B00008EE103AFB6900F083816A465146A2EBBB
:1019C000C40295466200EA46B2FBFBF2AAEBC400F1
:1019D00085460AEB8200EE46F861ADEB010DF86931
:1019E0000EEB820CC7F810C0EC46ADEB010D00EB1E
:1019F0008201CCF80400CCF8081001EB82013869B0
:101A0000E946CCF80C1000EB8201CCF800A001EB09
:101A10008202C9E900E0C9E90212012B00F06483E7
:101A2000022B00F06C82002B00F080816208494696
:101A30006046BB69984718EE103A24379D46BD466C
:101A4000BDEC028BBDE8F08F002C8DD01A46D8ED8E
:101A50000C6A9FEDB27A8446331D36F922E00CF110
:101A6000080C07EE90EA33F922E00232F8EEE77A4A
:101A7000944267EE877A67EEA67A4CED027A07EE1B
:101A800090EAF8EEE77A67EE877A67EEA67A4CED91
:101A9000017AE2D8F9612246C847984ED8ED0D6A1E
:101AA0000020F9692B1D9FED9E7A9FED9E6ADFED68
:101AB0009E5A22E0F4EEC67AF1EE10FAC0F2C88423
:101AC00047F6FE72D1ED017A45F8202066EEA77A3E
:101AD000F4EEC77AF1EE10FA40F2F080F4EEC67A36
:101AE000F1EE10FAC0F2D58447F6FE7243F82020DA
:101AF0000230083184427FF639AFD1ED007A66EECC
:101B0000A77AF4EEC77AF1EE10FAD3D83246D9E7C5
:101B1000002C3FF429AFD8ED0C6A84469FED787A0B
:101B20000022331D8E4656F822100CF1080C07EEE9
:101B3000901A53F822100232F8EEE77A944267EED8
:101B4000877A67EEA67A4CED027A07EE901AF8EEE5
:101B5000E77A67EE877A67EEA67A4CED017AE2D8EB
:101B600071462246C7F81CE0C847664ED8ED0D6A9C
:101B70000020F9692B1D9FED6A7A9FED6A6ADFF8F4
:101B800094C120E0F4EEC67AF1EE10FAC0F2798446
:101B90003246D1ED017A45F8202066EEA77AF4EEC0
:101BA000C77AF1EE10FA40F28780F4EEC67AF1EED1
:101BB00010FAC0F25E84324643F820200230083129
:101BC00084427FF6D3AED1ED007A66EEA77AF4EECA
:101BD000C77AF1EE10FAD5D86246DAE7002C3FF466
:101BE000C3AED8ED0C6A86469FED477A4FF0000CE5
:101BF000331D56F82C200EF1080E82F40002A2F5D7
:101C0000000207EE902A53F82C200CF1020CF8EE9B
:101C1000E77A82F400026445A2F5000267EE877A53
:101C200067EEA67A4EED027A07EE902AF8EEE77A92
:101C300067EE877A67EEA67A4EED017AD9D8F96118
:101C40002246C847314ED8ED0D6A0020F9692B1D98
:101C50009FED337A9FED336ADFF8BCC01FE0F4EEEE
:101C6000C67AF1EE10FAC0F2FC833246D1ED017A69
:101C700045F8202066EEA77AF4EEC77AF1EE10FA66
:101C800018D9F4EEC67AF1EE10FAC0F2DA833246D1
:101C900043F820200230083184427FF667AED1ED50
:101CA000007A66EEA77AF4EEC77AF1EE10FAD6D88B
:101CB0006246DBE76246EBE762467DE7324615E7C0
:101CC000A100D6466208073121F00701ADEB010DF6
:101CD000EA46ADEB010D6946ADEB0E0D0AEB820055
:101CE000EC46ADEB0E0D01EB8202F861E946CCE962
:101CF00000A0C9E9001290E68C2504240280FFFFB1
:101D0000000000300082FF7F0000003482FF7F006F
:101D100070250424007E00807E0080FF00000038D3
:101D200004FF7FBF04FF7F3F00FEFF46002C00F052
:101D3000C982BBF1020FD8F8242000F0FA82796939
:101D4000C7F8049002EB810E5FED0C5A8A00DCF8B4
:101D500008100EF104007A611A46DCF80C303B6181
:101D6000331DD7F810903D61FD69C7E902CB8C4661
:101D7000834636F92210D8ED0C7A06EE101A33F9A4
:101D8000221006EE901A3EF92210B8EEC66A07EE4F
:101D9000101AF8EEE66A3BF92210B8EEC77A26EE82
:101DA000256A66EEA56A27EE257A26EE276A66EE94
:101DB000A76A27EE277A07EE901A51080232F8EE4A
:101DC000E77A0AEB8100944280ED006A05EB81001E
:101DD00067EEA57AC0ED006A0CEB810009EB81018A
:101DE00080ED007A98ED0C7A67EE877AC1ED007A83
:101DF000BFD8D7F804903D69D7E902CB60466208A6
:101E0000BB6949469847D8F82C307A69D8ED0D6AF5
:101E10001A441FED3D7A1FED3D6A2B1D904602F1DD
:101E2000040A5FED3F5A0022A84ED9E900EC51E0C8
:101E3000F4EEC67AF1EE10FAC0F2C78247F6FE70F1
:101E400045F822000CEB0100D0ED007A66EEA77A8F
:101E5000F4EEC77AF1EE10FA4BD9F4EEC67AF1EE51
:101E600010FAC0F2BA8247F6FE70BBF1020F43F8D7
:101E700022002BD0D9F808000844D0ED007A66EE95
:101E8000A77AF4EEC77AF1EE10FA36D9F4EEC67AF4
:101E9000F1EE10FAC0F2CD8247F6FE7048F822004B
:101EA000D9F80C000144D1ED007A66EEA77AF4EE81
:101EB000C77AF1EE10FA1ED9F4EEC67AF1EE10FAF6
:101EC000C0F2AF8247F6FE714AF822100232944205
:101ED0007FF6B1AD51080EEB81008900D0ED007A9C
:101EE00066EEA77AF4EEC77AF1EE10FAA0D8304683
:101EF000A6E73046B9E73146E6E73046CEE7002CA4
:101F000000F0E081BBF1020FD8F8243000F0E1814D
:101F10007A69DCF8081003EB820EC7F8049093008E
:101F2000DFED6B5A0EF1040000227B61DCF80C300F
:101F30003B61331DD7F810903D61FD69C7E902CBC5
:101F40008C46834656F82210D8ED0C7A07EE101A0C
:101F500053F82210B8EEC76A07EE101A5EF8221086
:101F6000F8EEC76A07EE101A26EE256A5BF8221013
:101F7000B8EEC77A66EEA56A26EE276A27EE257ABE
:101F800066EEA76A27EE277A07EE901A510802320A
:101F9000F8EEE77A0AEB8100944280ED006A05EBE7
:101FA000810067EEA57AC0ED006A0CEB810009EBB9
:101FB000810180ED007A98ED0C7A67EE877AC1EDA9
:101FC000007ABFD8D7F804903D69D7E902CB6046C4
:101FD0006208BB6949469847D8F82C307A69D8ED31
:101FE0000D6A1A449FED3E7A9FED3E6A131D92469C
:101FF000DFF8E4C00022FB612B1D364ED9E9008ECC
:102000004EE0F4EEC67AF1EE10FAC0F2FC813046F2
:1020100045F822000EEB0100D0ED007A66EEA77ABB
:10202000F4EEC77AF1EE10FA49D9F4EEC67AF1EE81
:1020300010FAC0F2EF813046BBF1020F43F82200E4
:102040002AD0D9F808000844D0ED007A66EEA77AC5
:10205000F4EEC77AF1EE10FA35D9F4EEC67AF1EE65
:1020600010FAC0F2C98130464AF82200D9F80C00B3
:102070000144D1ED007A66EEA77AF4EEC77AF1EE6C
:1020800010FA1ED9F4EEC67AF1EE10FAC0F2AD8164
:102090003146F86940F82210023294427FF6CBAC08
:1020A000510808EB81008900D0ED007A66EEA77A2E
:1020B000F4EEC77AF1EE10FAA3D86046A8E76046BE
:1020C000BAE76146E5E76046CEE700BF0280FFFF62
:1020D000000000300082FF7F007E0080000000349E
:1020E00004FF7FBF04FF7F3F002C00F0EB807A6984
:1020F0000021D8F82430C7F8109003EB820ED7F8EF
:102100001C909300FD610EF104021FED0C6A7B61CF
:10211000331D154656F821204808D8ED0C6ABBF14E
:10212000020F82F40002A2F5000207EE902A53F893
:10213000212082F40002B8EEE77AA2F5000227EE31
:10214000067A07EE902A0AEB8002F8EEE77A27EE8D
:10215000267A67EE867A82ED007A09EB80024FEAF2
:10216000800067EEA67AC2ED007A27D05EF82120C3
:1021700082F40002A2F5000207EE902A55F8212011
:1021800082F40002B8EEE77AA2F5000227EE067AA2
:1021900007EE902ADCF80820F8EEE77A024427EEF2
:1021A000267A67EE867A82ED007A98ED0C7ADCF872
:1021B0000C2067EE877A0244C2ED007A02318C422D
:1021C000A8D8D7F8109060466208BB694946FD69F7
:1021D0009847D8F82C307A69D8ED0D6A1A441FED6B
:1021E000407A1FED406A131D9246DFF8C4C20022F8
:1021F000FB612B1DAB4ED9E9008E4EE0F4EEC67AA2
:10220000F1EE10FAC0F2C580304645F822000EEB20
:102210000100D0ED007A66EEA77AF4EEC77AF1EE0F
:1022200010FA49D9F4EEC67AF1EE10FAC0F2BF8086
:102230003046BBF1020F43F822002AD0D9F808003B
:102240000844D0ED007A66EEA77AF4EEC77AF1EE94
:1022500010FA35D9F4EEC67AF1EE10FAC0F2AE807B
:1022600030464AF82200D9F80C000144D1ED007A3A
:1022700066EEA77AF4EEC77AF1EE10FA1ED9F4EE04
:10228000C67AF1EE10FAC0F28B803146F86940F858
:102290002210023294427FF6CEAB510808EB810047
:1022A0008900D0ED007A66EEA77AF4EEC77AF1EEF7
:1022B00010FAA3D86046A8E76046BAE76146E5E7AA
:1022C0006046CEE7224649466046BB699847FFF71D
:1022D000B2BBC7F810B0002298ED0C6A331DDFEDD9
:1022E000726AD7F81CB0786956F8221007EE901A77
:1022F00053F82210B8EEE77A07EE901A510802322E
:10230000F8EEE77A27EE267A0AEB810E94420BEB81
:10231000810167EEA67A27EE067A67EE867A8EED61
:10232000007AC1ED007ADFD88300D7F810B07B6166
:102330004DE61A46C7F810B098ED0C6A331DDFED74
:102340005B6AD7F81CB0786936F9221007EE101ACC
:1023500033F9221007EE901AB8EEC77A510802320C
:10236000F8EEE77A27EE267A0AEB810E94420BEB21
:10237000810167EEA67A27EE067A67EE867A8EED01
:10238000007AC1ED007ADFD88300D7F810B07B6106
:1023900034E5F0EE675AFEEEE45A15EE900A34E7A3
:1023A000F0EE675AFEEEE45A15EE901A6EE7F0EE84
:1023B000675AFEEEE45A15EE900A3AE7F0EE675AD5
:1023C000FEEEE45A15EE900A4BE767EEA57AFDEEB5
:1023D000E77A17EE900A00B232E567EEA57AFDEED5
:1023E000E77A17EE900A00B23FE5F0EE675AFEEE8C
:1023F000E05A15EE901A4CE6F0EE675AFEEEE05AFF
:1024000015EE900A30E6F0EE675AFEEEE05A15EE51
:10241000900AFDE5F0EE675AFEEEE05A15EE900ADE
:102420000AE667EEA57AFDEEE77A17EE901A09B292
:102430004AE567EEA57AFDEEE77A17EE900A00B25C
:102440002CE5F0EE675AFEEEE45A15EE902A1FE4F2
:1024500067EEA57AFDEEE77A17EE902A12B2FFF743
:1024600031BBF0EE675AFEEEE45A15EE902AFFF704
:10247000FDBBF0EE675AFEEEE05A15EE902AFFF72C
:102480009BBBF0EE675AFEEEE05A15EE902AFFF77E
:1024900080BB67EEA57AFDEEE77A17EE902A12B2BE
:1024A000FFF724BB82FF7F000000003000000038EF
:1024B0007E0080FF30B5184C154685B0046004F1ED
:1024C000080EEC460FC98EE80F00D4ED047AF5EE45
:1024D000C07A8CE80F00F1EE10FA1ADDB7EE006A50
:1024E00094ED057A27EE277AC6EE276A84ED0D7AF9
:1024F000C4ED0C6A6DB1204640F8185F01F0A0FCF5
:10250000064903690020064A2162A262E36005B021
:1025100030BD012005B030BD7025042400200030FE
:102520000000003000680830704700BFB1F5807FC0
:1025300003680A4628BF4FF48072B1F5807F9A6025
:1025400094BF0020012070470068183001F0D8BC0B
:1025500030B5046883B00D46E3694BB1A368002031
:10256000E26A616A9B00009004F11C0001F06AFCC1
:10257000A3680748A26A9B00216A009004F1180032
:1025800001F060FC0020C4E9005003B030BD00BF82
:10259000F918000810B4074B4FF07E513024002288
:1025A000032019619C60D8605DF8044B5961C3E950
:1025B0000622704770250424074A118830B48180B0
:1025C0000024064D91884FF4807285600460C180BC
:1025D000C26030BC704700BF0431010800400030C9
:1025E00000220A2302700371704700BF704700BFCA
:1025F000F0B50B7803F0F004F02C28D003F0E004E1
:10260000C02C14D1022A11D1D0F814281B09841827
:1026100084F814340B7884F815340023497884F84E
:102620001614043284F81734C0F81428F0BD032AB5
:10263000FCD1D0F814281B09841884F814340B78C2
:1026400084F815344B7884F816348B78E9E7F22B4C
:102650002DD003F0FD04F12C13D1022AE6D1D0F8DD
:1026600014380025C418043384F814240A7884F834
:1026700015244A7884F8175484F81624C0F81438BE
:10268000F0BDF32B32D9012AD0D1D0F8143805256A
:102690000024C218043382F81454097882F81644CE
:1026A00082F8174482F81514C0F81438F0BD032AD4
:1026B000BCD1D0F81438C418043384F814240D782D
:1026C00084F815544D7884F816548D7884F817548E
:1026D000C0F814380B7803F0FD04F12CA6D0F32BCE
:1026E000A4D80025D0F81448AE4624E0032AF8D92F
:1026F000D0F814388C460325C0F10407034404269F
:1027000083F81464AE469CF800400CF1030C83F887
:1027100015441CF8024C83F81644FC181CF8015CA4
:10272000043383F813540EF10305C0F81448AA4289
:10273000E6D85FFA8EF5131D7245A3EB050300EB97
:10274000040585F8143404F10105C0F8145817D9AC
:1027500004F2154302F1FF3C0EF1FF348C440344B4
:102760000C441049091A14F8016F03F8016B644511
:1027700001EB0306C0F81468F5D1A5EB0E0515446E
:10278000AE073FF453AF05F2144306490024034457
:10279000091A03F8014BCA189507FAD1C0F8142892
:1027A000F0BD00BFECFBFFFF2DE9F041064690F8BD
:1027B0000280F2B1002015460F46441CA54216D9EE
:1027C00039180B4602E00134A54210D913F901CFA4
:1027D000BCF1000FF7DAA04209D0221A3046FFF709
:1027E00007FFA54205D92046441CA542E8D82D1A6A
:1027F00027D1737806F214443046D6F81428012BFA
:10280000214613D00CF0E2FC03466420012B13D1C7
:10281000B8F1000F10D002F029FC737808F1FF38EE
:102820002146012B3046D6F81428EBD10CF0D8FC09
:1028300003466420012BEBD00023C6F81438BDE812
:10284000F08139182A463046FFF7D2FED1E700BFA3
:1028500030B5D0F80C44ADF2044D3CB3D0F80824A8
:10286000D0F804349A4224D0EC460021E6460131E7
:10287000D0F80834D0F804249B1AC3F30903002BC2
:10288000F6D0D0F804345A1C0344C2F309021D796F
:10289000C0F80424D0F80824D0F804340EF8015B02
:1028A0009A42E4D1D0F810246046A0470DF2044DBE
:1028B00030BD0021EC46F5E7F8B5254CE378002B58
:1028C00043D00B680E46002B3FD0002105460F4633
:1028D0005B1A032B30D96B5C294413F00E0F2BD0FD
:1028E00003F00F03234493F818382BB3013B481C23
:1028F00050FA83F0D4F80434D4F80824013B9B1A2E
:10290000C3F3090313B311F801CFD4F80434D4F896
:102910000824013B9B1AC3F30903002BF5D0D4F81C
:102920000834814203F101022344C2F3090283F80F
:1029300004C0C4F80824DDD104372046FFF788FF1F
:102940003368BFB29F423946C2D3F8BDE370F3E7A4
:10295000A8250424CAB2114BA2F1010210B5B2FAA3
:1029600082F282B00E4C5209ADF8041004600120CE
:10297000A4F8011011461870204600920CF0A0FB3C
:1029800000230A20E37002F06FFB009A20460549FD
:1029900002B0BDE810400CF02DBC00BF0C56042462
:1029A000A8250424B92800080068FFF7FDBE00BF71
:1029B00030B54FF44072114C114BA4F8012004F6CD
:1029C0001805104A03F1100E04F6280CC4F8382834
:1029D0004FF60F02A4F83C28072284F83E280FCBBC
:1029E00085E80F009EE80F008CE80F002046064A9D
:1029F0000649BDE830400FF03BB900BFA8250424CC
:102A00000C31010880707FF000000024ED250008E3
:102A100010B592B0ADF804100180C9B2149C0B2916
:102A2000C460C0E901233FD090F801C0BCF10F0F92
:102A30003AD8022A3FD0032A02D0012A00D000222D
:102A40000E92012B02D0022B18BF0023022C0F93F1
:102A50002CD0032C2AD0012C28D000230A29109333
:102A600027D85C4A02EB812202610A2914D8DFE8E8
:102A700001F0A39587796B5D4F4133250600564BD6
:102A8000D3F8E01041F48061C3F8E010D3F8E030EF
:102A900003F480630C930C9B01230DA9104603FAE9
:102AA0000CF30D9304F002F912B010BD0A29109432
:102AB000D7D90022D8E711220E92C2E7464BD3F8AD
:102AC000E01041F40071C3F8E010D3F8E03003F4F3
:102AD00000730B930B9BDFE73F4BD3F8E01041F4FF
:102AE0008071C3F8E010D3F8E03003F480730A93E8
:102AF0000A9BD1E7384BD3F8E01041F08001C3F8CE
:102B0000E010D3F8E03003F080030993099BC3E79A
:102B1000314BD3F8E01041F04001C3F8E010D3F896
:102B2000E03003F040030893089BB5E72A4BD3F845
:102B3000E01041F02001C3F8E010D3F8E03003F0DA
:102B400020030793079BA7E7234BD3F8E01041F03E
:102B50001001C3F8E010D3F8E03003F0100306933F
:102B6000069B99E71C4BD3F8E01041F00801C3F82D
:102B7000E010D3F8E03003F008030593059B8BE7E2
:102B8000154BD3F8E01041F00401C3F8E010D3F87E
:102B9000E03003F004030493049B7DE70E4BD3F86D
:102BA000E01041F00201C3F8E010D3F8E03003F088
:102BB00002030393039B6FE7074BD3F8E01041F048
:102BC0000101C3F8E010D3F8E03003F001030293F1
:102BD000029B61E7000002580044025808B5012139
:102BE00043780069994089B204F068FA003818BF48
:102BF000012008BD01230A464178006903FA01F16A
:102C000089B204F061BA00BF8378022B30B5044664
:102C10008FB037D0032B33D0012B31D000230A9350
:102C2000E378012B2AD0022B28D000230B9300231A
:102C300020460C9302F072FE0546204602F076FE16
:102C400023780990082B13D8DFE803F01F3245588A
:102C50006B7E91A40500594BD3F8E02042F48072BA
:102C6000C3F8E020D3F8E03003F480730893089BA6
:102C700009A9284604F01AF80FB030BD0B93D6E727
:102C80000A93CDE711230A93CAE74C4B09A92846BA
:102C9000D3F8E02042F00102C3F8E020D3F8E0309E
:102CA00003F001030093009B04F000F80FB030BD67
:102CB000424B09A92846D3F8E02042F00202C3F8AB
:102CC000E020D3F8E03003F002030193019B03F00E
:102CD000EDFF0FB030BD394B09A92846D3F8E020ED
:102CE00042F00402C3F8E020D3F8E03003F004031C
:102CF0000293029B03F0DAFF0FB030BD2F4B09A9FE
:102D00002846D3F8E02042F00802C3F8E020D3F8C8
:102D1000E03003F008030393039B03F0C7FF0FB0F9
:102D200030BD264B09A92846D3F8E02042F0100216
:102D3000C3F8E020D3F8E03003F010030493049BC1
:102D400003F0B4FF0FB030BD1C4B09A92846D3F8DF
:102D5000E02042F02002C3F8E020D3F8E03003F096
:102D600020030593059B03F0A1FF0FB030BD134B6B
:102D700009A92846D3F8E02042F04002C3F8E02039
:102D8000D3F8E03003F040030693069B03F08EFF78
:102D90000FB030BD094B09A92846D3F8E02042F016
:102DA0008002C3F8E020D3F8E03003F080030793FB
:102DB000079B03F07BFF0FB030BD00BF00440258FB
:102DC00070B506460D4602F0A9FD0446304602F0F5
:102DD000ADFD2A1E0146204618BF0122BDE8704005
:102DE00004F072B90023122270B586B0CDE9022337
:102DF00004930368032B01D804230593061D841D47
:102E0000304602F08BFD0546304602F08FFD03464A
:102E100001A92846019303F049FF204602F07EFDF8
:102E2000034620461C4602F081FD01A903462046C8
:102E3000019303F03BFF06B070BD00BF634A036817
:102E4000934210B58CB028D0614A934258D0614A61
:102E5000934200F09480604A934201D00CB010BDC0
:102E60005E4C5F48D4F8E03043F00203C4F8E03031
:102E7000D4F8E03003F002030A930A9BFFF7B2FF95
:102E8000D4F8F43043F08003C4F8F430D4F8F430CC
:102E900003F080030B930B9BE0E7504C5148D4F8B0
:102EA000E03043F00203C4F8E030D4F8E03003F03F
:102EB00002030193019BFFF795FFD4F8E83000224D
:102EC0001F2043F400131146C4F8E830D4F8E8306A
:102ED00003F400130293029BD4F8D83043F00103AB
:102EE000C4F8D830D4F8D83003F001030393039B1F
:102EF00002F060FE1F200CB0BDE8104002F098BE4A
:102F0000364C3948D4F8E03043F08003C4F8E03060
:102F1000D4F8E03003F080030493049BD4F8E0304D
:102F200043F00203C4F8E030D4F8E03003F00203C9
:102F30000593059BFFF756FFD4F8E83000222120C7
:102F400043F480031146C4F8E830D4F8E83003F4C1
:102F500080030693069BD4F8D83043F00103C4F8ED
:102F6000D830D4F8D83003F001030793079B02F060
:102F700021FE21200CB0BDE8104002F059BE1B48D4
:102F8000FFF730FF154B00224820D3F8E8401146E8
:102F900044F40004C3F8E840D3F8E84004F4000423
:102FA0000894089CD3F8D84044F00104C3F8D840F2
:102FB000D3F8D83003F001030993099B02F0FAFD1E
:102FC00048200CB0BDE8104002F032BE0054004072
:102FD00000580040005C0040001C005800440258AB
:102FE00074300424EC2D0424C42E04249C2F0424C7
:102FF0002DE9F0431A4B87B000254FF010099E468B
:10300000EC46184BFF22E04667461A700EF1180690
:103010000EF13004CDE90055CDE90255ADF8009030
:10302000BCE80F00CDE90455AEE80F009CE80300B2
:103030000095ADF800908EE80300B8E80F000FC6C9
:103040009CE803000095ADF8009086E803000FCFE0
:103050000FC49CE8030084E8030007B0BDE8F083D8
:1030600004000024E82D042410B5EFF3108472B698
:10307000084B1A78120602D504B962B610BD1B7847
:10308000D82205485BB202FB0300143003F0BCFAFF
:10309000F2E700BFE82D0424EC2D0424014804F0DD
:1030A000ABBE00BF782E0424014804F0A5BE00BFCB
:1030B000502F0424014804F09FBE00BF2830042490
:1030C0002DE9F0430F68D8243F4D85B007FB04F489
:1030D000032F05EB0403036040DCCB680E46012B95
:1030E0003CD84DD04FF0D808B646DFF8FC9008FB2E
:1030F0000758BEE80F00C446ACE80F00DEF8003009
:103100000DF1100ECCF80030D8F808C099E80F0087
:103110000EE90F000EEB8703BCF1010F53F8103CD2
:10312000C8F88C3031D0BCF1020F42D0BCF1000F96
:1031300035D0317C8C34D823002201202C4403FB71
:1031400007534900C3E92602C3F894102046C3E997
:103150002822C3E92A2204F041FC18B1012005B05D
:10316000BDE8F0830146204604F052FE0028F5D168
:103170000146204604F076FE003818BF0120EEE735
:103180000B7C103B672BADD9E8E702F00DF90F4B34
:1031900098420CBF0E4B0F4BC8F89030C9E702F0B5
:1031A00003F90A4B98420CBF0B4B0C4BC8F89030FC
:1031B000BFE702F0F9F8054B98420CBF084B094BEA
:1031C000C8F89030B5E700BFEC2D0424000E2707A7
:1031D0002D0FB0303211D0205F4390608A62E03012
:1031E000200BA0101A0980102C3101082DE9F041A4
:1031F000D0F8008082B00D4617461E4608F18C04B8
:10320000204604F001FE2028FAD1D8F80C3073B91A
:103210006D002046089C33463A46A9B2009404F05B
:1032200033FC003818BF012002B0BDE8F081089BD4
:1032300032463946204604F0FBFCF2E7044B1022EC
:103240001A7483F8E82083F8C02183F89822704725
:10325000EC2D042430B5002395B04FF48071062284
:1032600004460B9306921393CDE90C13CDE90E336C
:10327000CDE9113302F09AF807282BD004F110059C
:1032800041F2883206A9284605F03EFD28B1012307
:10329000184684F85C3015B030BD0222022306A91E
:1032A0002846CDE9002310220123CDE90223002284
:1032B0004FF48003CDE9042305224FF0807306927A
:1032C0006A460F9341F2883305F08AFE0028DED16A
:1032D00015B030BD0323012084F85C3015B030BD3B
:1032E00070B50023A4B04FF080724FF4807504468F
:1032F000ADF806300D93CDE910320122CDE90E5321
:10330000CDE91223CDE91433002943D0F02300F195
:10331000100508AEADF80630C02341F288323146C0
:103320002846089305F0F0FC28B10123184684F8DC
:103330005C3024B070BD41F288320DF106012846A0
:1033400005F04CFD03460028EFD105224FF48071B3
:103350001E93284616924FF080721B9321931F9262
:1033600002AA9FED1F7BCDE91C13CDE922338DED21
:10337000027B9FED1D7B41F2883316A98DED047B06
:103380009FED1B7B8DED067B05F02AFE0028CCD13E
:1033900024B070BD00F1100508AE612341F28832FF
:1033A00031462846089305F0AFFC0028BDD141F214
:1033B00088320DF10601284605F08EFD0028B4D1B3
:1033C000BDF80630204623F0780343F04003ADF803
:1033D0000630FFF73FFF00289ED0A6E7AFF300803E
:1033E00000000000010000001000000001000000CB
:1033F00000000000000040002DE9F04F00234FF4D2
:10340000807501264FF0807804462DED028BABB01D
:103410008DF8073013932193299314950E96CDF8C8
:103420005C80CDE91533CDE91863CDE91A33CDE9D8
:103430002253CDE92433CDE9273306231C9301F031
:10344000B5FF072808D004F1100741F288321CA903
:10345000384605F059FC40B10123184684F85C3029
:103460002BB0BDEC028BBDE8F08F4FF0020A4FF09D
:10347000020B4FF0050941F2883308AA1CA938460F
:10348000CDF89480CDF870909FED2D8BCDE908ABF1
:103490004FF0000A4FF4800B8DED0A8BCDE90CAB99
:1034A00005F09EFD0028D7D141F2883238460EA99A
:1034B00005F02AFC0028CFD1402341F288320DF1DB
:1034C000070138468DF8073005F088FC0028C3D185
:1034D00041F288330EA902AA3846CDF83890CDF8CB
:1034E0005C809FED197B8DED048BCDE906AB8DEDF6
:1034F000027B05F075FD03460028ADD1CDF8709034
:103500004FF00109CDF894804FF00008219308AAEC
:1035100029931CA938462295CDE92333CDE92733D9
:1035200041F288338DED0A8BCDE90CABCDE90889EA
:1035300005F056FD002893D0304684F85C608FE794
:1035400010000000010000004000000040000000EA
:103550002DE9F043624CA3B00D46046001F026FF54
:10356000072800F0A980286823466968AA6807C36D
:103570001E46AB8926F8043B3046257B677B05F069
:10358000A5FBE0B9574B012D4FF00108E061236125
:1035900014BF4FF480134FF40003C4E9058893FA75
:1035A000A3F3B3FA83F34FF48079013BC4F824907A
:1035B000C4E90B003046236205F01CFB38B1012240
:1035C000134684F85C20184623B0BDE8F0836623D8
:1035D0000B90139041F2883206A90693CDE90C9026
:1035E000CDE90E00CDE91100304605F08DFB002835
:1035F000E5D1992341F2883206A93046069305F0B9
:1036000083FB0028DBD105231C9019906A46149394
:103610004FF08073219014A91D9341F288339FEDE0
:103620002A7BCDE91A90CDE91F008DED007B9FED3F
:10363000287B30468DED027B9FED277B8DED047B53
:1036400005F0CEFC0028BAD129462046FFF748FEF7
:103650000028B4D12046FFF7CFFE03460028AED1A4
:10366000002FB0D1189330460027002606AA14A9CF
:10367000CDF86890CDE91F33EB2314934FF44063EA
:103680001B934FF4005317934FF440431C93A02314
:103690001693062319934FF0805321934FF04073F4
:1036A000CDE906671D9305F013FD034600288AD077
:1036B000434684F85C8086E701230322184684F899
:1036C0005C2023B0BDE8F083000000000100000092
:1036D0001000000001000000000000000000400099
:1036E0004C310424005000522DE9F04F8FB0414B73
:1036F0000024026800AF9A427C63C7E90944C7E925
:103700000B4403D03C37BD46BDE8F08F3A4B40F642
:1037100009213A48EB46D3F8D42007F11C0607F1FB
:10372000220A4FF0020942F480424FF00308C3F826
:10373000D420D3F8D42002F48042BA60BA68D3F817
:10374000E02042F04002C3F8E020D3F8E02002F08D
:103750004002FA60FA68D3F8E02042F02002C3F891
:10376000E020D3F8E02002F020023A613A69D3F871
:10377000E02042F01002C3F8E020D3F8E02002F08D
:1037800010027A617A69D3F8E02042F00202C3F8AD
:10379000E020D3F8E030F86103F002033984BB6124
:1037A000174B7B60BB697B6853F8040F7B6002F0AA
:1037B000B5F87B680546186802F0B8F816F8013BC2
:1037C000786207F124012846C7F830807B63C7E997
:1037D0000A9403F06BFA5645E5D100225C201146AD
:1037E00002F0E8F95C2002F023FA3C37DD46BD46E2
:1037F000BDE8F08F00500052004402580A0A09093F
:10380000A8310424114B02689A4200D07047104A34
:1038100070B5D2F8D4300F4C23F4804304F118066D
:10382000C2F8D43054F8040F02F078F80546206846
:1038300002F07CF80146284603F078FBB442F1D14F
:103840005C20BDE8704002F001BA00BF0050005299
:1038500000440258A8310424014805F0C5BC00BF4B
:103860005C310424084B1A1D981D03F1080110B4A3
:103870009C1C9A6603F10A02C3E91834C3E91B01D0
:103880005DF8044B5A6770474C31042438B503681F
:1038900071B9026A00F1280500F5AC74012A0CBF69
:1038A000002140218BBB1D4B5722C0F858310DE041
:1038B000426A00F1C00500F5E874012A0CBF00213E
:1038C0004021EBB1164B5A22C0F8D03100232046DC
:1038D000C4E901214FF480524FF480616362626158
:1038E0004FF48042C4E903314FF48073C4E90623E6
:1038F0004FF40033236202F00FFB58B1FFBEFEE726
:10390000084B5822C0F8D031E0E7074B5922C0F8E5
:103910005831DBE7C5E92044A56338BD10000240FB
:103920007000024028000240580002402DE9F04398
:10393000821D05468BB0031D05F10A010830CDE953
:10394000052305F10C02AB69CDE907010992002BB3
:103950003DD0EB69B3FA83F84FEA581801230222ED
:1039600005AE0AAF4FF006090393CDE9012356F8DF
:10397000044B2B792278934216D02B68F3B1012B9C
:1039800002D1F2B10A230493204601F0CFFF03468F
:103990002046009301F0C2FF694603F087F9BE425A
:1039A000E5D10BB0BDE8F083697963789942E4D141
:1039B000B8F1000FF3D02B68002BE0D1CDF81090B8
:1039C000E2E76378022B14BF0A230823DBE74FF0FA
:1039D0000108C3E7534A0368934230B505468BB0EC
:1039E00055D02032934252D04F4A934204D02032D5
:1039F000934201D00BB030BD4C4C4D48D4F8E03070
:103A000043F00103C4F8E030D4F8E03003F00103E0
:103A10000593059BD4F8E03043F00803C4F8E03088
:103A2000D4F8E03003F008030693069BD4F8E030A6
:103A300043F04003C4F8E030D4F8E03003F0400332
:103A40000793079BD4F8F03043F40003C4F8F03038
:103A5000D4F8F03003F400030893089BFFF766FFE7
:103A6000D4F8D830296843F001032F4A3048C4F80D
:103A7000D830891AD4F8D83018BF012103F00103D7
:103A80000993099B0BB0BDE83040FFF7FFBE274C00
:103A90002848D4F8E03043F00103C4F8E030D4F80B
:103AA000E03003F001030093009BD4F8E03043F0D2
:103AB0001003C4F8E030D4F8E03003F010030193B1
:103AC000019BD4F8E03043F04003C4F8E030D4F870
:103AD000E03003F040030293029BD4F8F03043F44B
:103AE0008003C4F8F030D4F8F03003F4800303937B
:103AF000039BFFF71BFFD4F8D830296843F001037C
:103B0000084A0C48C4F8D830891AD4F8D83018BFFD
:103B1000012103F001030493049B0BB0BDE8304086
:103B2000FFF7B4BE04580140045C01400044025851
:103B300020340424C4310424014802F065BD00BFD0
:103B40001C330424014802F05FBD00BF94330424F9
:103B5000014802F059BD00BF78350424014802F045
:103B600053BD00BFF03504241A4A0368934210B4D1
:103B70000BD02032934208D0174A934216D02032FD
:103B8000934213D05DF8044B7047144B0022D3F8D6
:103B90005442C3F85822002CF4D0D3F84802D3E999
:103BA000931223465DF8044B520818470B4B002232
:103BB000D3F8B044C3F8B424002CE3D0D3F8AC2439
:103BC000D3F8A814D3F8A404520823465DF8044B94
:103BD000184700BF04580140045C0140C43104246C
:103BE000184A0368934210B40BD02032934208D095
:103BF000154A934217D02032934214D05DF8044BFB
:103C00007047124BD3E994245208C3F85822002C71
:103C1000F4D0D3E99201234601EB820100EB82004C
:103C20005DF8044B1847094BD3F8AC24D3F8B044E3
:103C30005208C3F8B424002CE0D0D3F8A814D3F869
:103C4000A404E8E704580140045C0140C4310424A2
:103C50002DE9F04F0C684FF41776754F87B004FBD1
:103C600006F6012C07EB060AC0F800A000F3A080BE
:103C70000D468E464FF00008D44669A3D3E90023D1
:103C800069A1D1E90001CDE9022306ABCAF850824F
:103C900003EB8403CDE9040153F810BC53F8083C4E
:103CA000CAE992880193BEE80F00ACE80F00BEE8B5
:103CB0000F00ACE80F00019B9EE80300CAF828B093
:103CC000CAF8C0308CE803002B69042B0CD8DFE85D
:103CD00003F0737D879103004FF41773554A03FB7C
:103CE00004739A64C3F8E020AA692B6A002A43D0BF
:103CF000002B4FF4177308BF022203FB047318BF95
:103D00000322DA6201221A63EA696B6A002A40D14F
:103D1000191E4FF4177318BF012103FB0473C3E985
:103D200031126B69022B05D8434A12F80380434ACB
:103D300052F823904FF4177306F128004246494683
:103D400003FB04740023384463646363E365C4F8CD
:103D5000DC30C4F8CC30C4F8F430C4E90F33C4E923
:103D60001533C4E93533C4E93B33022307F0DEFAE7
:103D7000002849D0FFBEFEE7191E4FF4177318BF85
:103D8000012103FB0473C3E90B12EA696B6A002A81
:103D9000BED0002B4FF4177308BF022203FB04733D
:103DA00018BF0322C3F8C4200122C3F8C820B8E713
:103DB000012007B0BDE8F08F4FF417734FF4FA52AB
:103DC00003FB04739A64C3F8E0208DE74FF4177384
:103DD0004FF47A5203FB04739A64C3F8E02083E73C
:103DE0004FF417734FF4FA4203FB04739A64C3F859
:103DF000E02079E74FF417734BF6803203FB04732E
:103E00009A64C3F8E0206FE706F1C000022342463F
:103E10004946384407F08AFA0028CAD0FFBEFEE7B8
:103E200004580140045C014024580140245C0140D6
:103E3000C43104240077010084310108883101086D
:103E40000068704770B5046882B015460E46C4F825
:103E50005032C4E99212069AC4F85422A269012A87
:103E600026D0626A012A9AB211D0294604F1C00014
:103E7000019207F017FB236A019A012B10D0294603
:103E800004F1280007F00EFB002002B070BD04F121
:103E9000C000019207F098FB236A019A012BEED132
:103EA000314604F1280007F08FFB002002B070BDFE
:103EB000226A012A9AB211D0294604F128000192FF
:103EC00007F0F0FA636A019A012B10D0294604F139
:103ED000C00007F0E7FA002002B070BD04F128002E
:103EE000019207F071FB636A019A012BEED1314612
:103EF00004F1C00007F068FB002002B070BD00BFF5
:103F000003681B69042B05D8044A02EB830393ED75
:103F1000000A70479FED020A704700BF9431010804
:103F200000803B470368D3F8580270471F4BC168B5
:103F30000268F0B5D3F88C5083B00369ADB24D1B65
:103F4000A2B1AB4212D00446866811D2F018E91A29
:103F5000CDE9001000F0C0FF0023DDE90010D4E936
:103F60000062B047E3682561AB421BD003B0F0BDEF
:103F7000F018C91ACDE9000100F0AEFF0023DDE919
:103F80000001D4E90072B8473046294600F0A4FF8A
:103F900000233046626829462668B047E3682561F9
:103FA000AB42E3D10023236103B0F0BD0000024027
:103FB0002DE9F84F04460F4690461E4600F13405A1
:103FC000284607F01DFF2028FAD14FF48063002017
:103FD000C4F8D030C4F848314FF44033C4F8CC00B2
:103FE000C4F8E030C4F858314E4BC4F8DC00C4F8D3
:103FF000C03003F57A73C4F8E400C4F838314023C4
:10400000C4F8C800C4F84031E369C4F84401C4F8F6
:104010005401C4F85C01C4E93500C4E95300072B1E
:104020000BD8DFE803F061535A373E454C04512367
:10403000C4F8C4305223C4F83C3104F59C79484696
:1040400001F06AFF08B1FFBEFEE7C4F8A890C4F80B
:104050007051EFF3108972B6DFF8D0B094F91C30CC
:10406000DFF8CCA08BF800300A9B2F4CCAF8003048
:104070000B9B23600EB11846B0471FFA88F23946F1
:10408000284607F0A7FCB0BBB9F1000F00D162B61B
:10409000BDE8F88F3F23C4F8C4304023C4F83C3156
:1040A000CBE74123C4F8C4304223C4F83C31C4E711
:1040B0004723C4F8C4304823C4F83C31BDE74F233C
:1040C000C4F8C4305023C4F83C31B6E72B23C4F8FD
:1040D000C4302C23C4F83C31AFE72D23C4F8C430DE
:1040E0002E23C4F83C31A8E72923C4F8C4302A237E
:1040F000C4F83C31A1E7FF238BF800300023CAF855
:10410000003023600A9B3BB10B98012198470120A6
:10411000B9F1000FBCD1BAE70120B9F1000FB7D156
:10412000B5E700BF88000240B4450424B04504242C
:10413000AC4504242DE9F84F04460F4690461E4630
:1041400000F13405284607F05BFE2028FAD14FF431
:1041500080630020C4F8D030C4F848314FF44033B5
:10416000C4F8CC00C4F8E030C4F858314E4BC4F861
:10417000DC00C4F8C03003F57A73C4F8E400C4F876
:1041800038314023C4F8C800C4F84031E369C4F8AA
:104190004401C4F85401C4F85C01C4E93500C4E921
:1041A0005300072B0BD8DFE803F061535A373E4525
:1041B0004C045123C4F8C4305223C4F83C3104F1F8
:1041C000C009484601F0A8FE08B1FFBEFEE7C4F8EA
:1041D000AC90C4F8F850EFF3108972B6DFF8D0B0A5
:1041E00094F91C30DFF8CCA08BF800300A9B2F4CE0
:1041F000CAF800300B9B23600EB11846B0471FFA77
:1042000088F23946284607F037FCB0BBB9F1000FF9
:1042100000D162B6BDE8F88F3F23C4F8C430402314
:10422000C4F83C31CBE74123C4F8C4304223C4F87E
:104230003C31C4E74723C4F8C4304823C4F83C31B8
:10424000BDE74F23C4F8C4305023C4F83C31B6E76F
:104250002B23C4F8C4302C23C4F83C31AFE72D2302
:10426000C4F8C4302E23C4F83C31A8E72923C4F88D
:10427000C4302A23C4F83C31A1E7FF238BF8003077
:104280000023CAF8003023600A9B3BB10B98012140
:1042900098470120B9F1000FBCD1BAE70120B9F16C
:1042A000000FB7D1B5E700BF88000240B445042431
:1042B000B0450424AC4504242DE9F0410D4682B0FC
:1042C000EFF3108772B6002948D1FF23254A264C08
:1042D000237013682BB1002029461060234A106810
:1042E000984723781B0625D5DFF888800025204EC7
:1042F000444605E001351C3406F5D876092D19D061
:10430000A369012B1BD0002BF4D121683046002972
:10431000F0D06369019323690093E3682289FFF772
:1043200009FF0028E6D1C5EBC50508EB850348F871
:104330002500586007B962B602B0BDE8F081616837
:104340000029D7D063693046019323690093E3685D
:104350002289FFF72DFE0028CCD1E4E709F04CF8C4
:10436000B3E700BFAC450424B0450424B44504249D
:104370007C3604244C000024F0B5002387B00222D0
:1043800004460493CDE90223027EC3690B2A4FEA57
:10439000430523D1A27E0B2A02D1002007B0F0BD35
:1043A00048496B1C484851F8233045780178187803
:1043B000E67E884269D0824277D0D87803F1030C38
:1043C00081426ED0824278D0987903F1060C8842FF
:1043D0006FD0824233D0012007B0F0BD394B3A484C
:1043E00053F8253001784678187894F819C081423E
:1043F0003DD0824241D0D87803F1030E814240D0B3
:1044000082424AD0987903F1060E884241D0824216
:10441000E1D1DB796345DED1734604F118069B7860
:104420003046059301F07AFA034630461E4601F005
:104430007DFA01A90190304602F038FCAAE7DB7949
:10444000B342C8D163461A349B782046059301F0E5
:1044500065FA034620461C4601F068FA034601A9A6
:104460002046019302F022FC002007B0F0BD93F833
:1044700001E0B645BFD08242BDD158786045BAD17F
:10448000CBE71F79B742BBD1BCE75F78AF4292D18F
:1044900093E7D979B142BAD19DE718796045B1D196
:1044A000BAE71F79AF428DD18EE75878B04284D1F8
:1044B000C9E7D979A9428CD18DE71879B04283D167
:1044C000C0E700BF64010024600100247E4A036845
:1044D0009342F0B58FB000F0E380A2F54C429342D6
:1044E00000F0E08002F58062934200F0DD8002F58A
:1044F0008062934200F0DA8002F58062934200F01D
:10450000D98002F54442934200F0D280A2F51C42C9
:10451000934200F0D18002F58062934200F0CE8099
:104520006A4A934240F0CC800826694D4FF4D87413
:1045300004FB0654A07E01F001FA207E01F0FEF992
:10454000E369082B13D8DFE803F03B495765738113
:104550008F9D05005F4BD3F8F42042F00802C3F8AA
:10456000F420D3F8F43003F008030893089B2046A6
:10457000FFF702FF012801D1FFBEFEE74FF4D87418
:104580000EAA554F0DF1240C04FB0654E36902EB0F
:1045900043050FCFACE80F003B680022ACF80030B9
:1045A000114635F9140C01F005FBE3690EAA02EB84
:1045B000430333F9140C0FB0BDE8F04001F038BBF1
:1045C000444BD3F8F02042F01002C3F8F020D3F8A7
:1045D000F03003F010030093009BC8E73D4BD3F885
:1045E000E82042F40032C3F8E820D3F8E83003F4BE
:1045F00000330193019BBAE7364BD3F8E82042F42D
:104600008022C3F8E820D3F8E83003F48023029333
:10461000029BACE72F4BD3F8E82042F40022C3F80A
:10462000E820D3F8E83003F400230393039B9EE7CC
:10463000284BD3F8E82042F48012C3F8E820D3F8DE
:10464000E83003F480130493049B90E7214BD3F8E4
:10465000F02042F02002C3F8F020D3F8F03003F04D
:1046600020030593059B82E71A4BD3F8E82042F01C
:104670008042C3F8E820D3F8E83003F08043069383
:10468000069B74E7134BD3F8E82042F00042C3F8CE
:10469000E820D3F8E83003F000430793079B66E770
:1046A000002642E7012640E702263EE703263CE7D4
:1046B00005263AE7042638E7062636E7072634E7D4
:1046C00000239B7EFFDE00BF00100140000C00585D
:1046D0007C360424004402583C3101082DE9F04F97
:1046E00091B0002301223F490DF1240A09938B4622
:1046F00001F11C09CAF8143001F13808CDF800A006
:1047000001F15407CDF804A001F17006CDF808A01E
:1047100001F18C05CDF80CA001F1A804CDF810A092
:1047200001F1C40ECDF814A001F1E00CCAE9013387
:10473000CAE903330F92FF222B4BCDE906AA1A7068
:10474000BAE80F00ABE80F009AE80700009B8BE87F
:1047500007009B46BBE80F00A9E80F009AE8070096
:10476000019B89E807009946B9E80F00A8E80F0007
:104770009AE80700029B88E807009846B8E80F000F
:104780000FC79AE80700039B87E807001F460FCF73
:104790000FC69AE80700049B86E807001E460FCE66
:1047A0000FC59AE80700059B85E807001D460FCD59
:1047B0000FC49AE80700069B84E807001C460FCC4C
:1047C000AEE80F00079B9AE807001C468EE807003A
:1047D0000FCCACE80F009AE807008CE8070011B096
:1047E000BDE8F08F4C000024B045042410B5094CFE
:1047F00004F1340007F012FA237D1BB1636BDB690F
:10480000DB0600D410BD2046FFF790FB636B10223F
:104810001A6210BD7C36042410B50B4C04F5F270FE
:1048200007F0FCF994F8C43123B1D4F8E431DB6922
:10483000DB0600D410BD04F5D870FFF777FBD4F881
:10484000E43110221A6210BD7C36042410B50B4CE2
:1048500004F5657007F0E2F994F8743323B1D4F8E5
:104860009433DB69DB0600D410BD04F55870FFF704
:104870005DFBD4F8943310221A6210BD7C360424F8
:1048800010B50B4C04F2445007F0C8F994F82435E5
:1048900023B1D4F84435DB69DB0600D410BD04F540
:1048A000A260FFF743FBD4F8443510221A6210BD12
:1048B0007C36042410B50B4C04F2F46007F0AEF91A
:1048C00094F8D43623B1D4F8F436DB69DB0600D48F
:1048D00010BD04F5D860FFF729FBD4F8F436102298
:1048E0001A6210BD7C36042410B50B4C04F6A400EB
:1048F00007F094F994F8843823B1D4F8A438DB692C
:10490000DB0600D410BD04F50760FFF70FFBD4F8F9
:10491000A43810221A6210BD7C36042410B50B4C4A
:1049200004F6542007F07AF994F8343A23B1D4F815
:10493000543ADB69DB0600D410BD04F52260FFF7B2
:10494000F5FAD4F8543A10221A6210BD7C360424C9
:1049500010B50B4C04F6044007F060F994F8E43B02
:1049600023B1D4F8043CDB69DB0600D410BD04F5A8
:104970003D60FFF7DBFAD4F8043C10221A6210BD48
:104980007C36042410B50B4C04F6B45007F046F9FD
:1049900094F8943D23B1D4F8B43DDB69DB0600D430
:1049A00010BD04F55860FFF7C1FAD4F8B43D1022E9
:1049B0001A6210BD7C36042410B5EFF3108472B671
:1049C000084B1A78120602D504B962B610BD1B78DE
:1049D0004FF4D87204485BB202FB0300C03001F010
:1049E00013FEF1E7B04504247C36042410B5EFF340
:1049F000108472B6094B1A78120602D504B962B651
:104A000010BD1B784FF4D87205485BB202FB03005F
:104A100000F59C7001F0F8FDF0E700BFB0450424FC
:104A20007C3604240021FFF747BC00BF214A0368FD
:104A300093422BD0A2F54C42934229D002F58062DA
:104A4000934227D002F58062934225D002F580621E
:104A5000934223D002F54442934221D0A2F51C4256
:104A600093421FD002F5806293421DD0124A9342B6
:104A70001CD108224FF4D871104B01FB0233197D71
:104A800011B11846FFF752BAFFF716BC0022F1E742
:104A90000122EFE70222EDE70322EBE70422E9E738
:104AA0000522E7E70622E5E70722E3E700231B7D6F
:104AB000FFDE00BF00100140000C00587C360424CB
:104AC000204A0368934229D0A2F54C42934227D052
:104AD00002F58062934225D002F58062934223D092
:104AE00002F58062934221D002F5444293421FD0E6
:104AF000A2F51C4293421DD002F5806293421BD066
:104B0000114A93421AD1082310484FF4D87202FB7D
:104B10000300037D03B97047FFF708BA0023F3E7EA
:104B20000123F1E70223EFE70323EDE70423EBE79B
:104B30000523E9E70623E7E70723E5E700231B7DD5
:104B4000FFDE00BF00100140000C00587C3604243A
:104B50000121FFF7B1BB00BF2DE9F0414F684FF4D1
:104B6000D876DFF8C0808E4607FB06F60C46082F85
:104B700008EB0605056005F1180CBEE80F00ACE86F
:104B80000F009EE807008CE8070002D86B6A022B32
:104B900002D90120BDE8F0812A6A032AF9D8A96A5E
:104BA0000229F6D8E86A0228F3D80131DFF878C084
:104BB000343689005CF8277046446F63A469A964A1
:104BC0001549AC6351F823306B64144B53F8223011
:104BD000134A2B64002352F8201001223046EB6563
:104BE000E963C5E91333C5E9153208F005FC00286F
:104BF000CFD10146304608F057FC0028C9D1014604
:104C0000304608F09FFC0028C3D1304608F02EFC47
:104C10000028BED12875BDE7CC310108D831010884
:104C2000E83101087C360424A8310108006892B2FA
:104C300008B534300A2306F03DFE003818BF0120C5
:104C400008BD00BF534B0122002047F6122130B4AB
:104C5000C3E97420C3E97721C3E9E020C3E9E32174
:104C60001A62DA6258621963C3F83025C3F8340552
:104C7000C3F83C25C3F84015C3F8E026C3F8E406A2
:104C8000C3F8EC26C3F8F016C3F89028C3F89408CC
:104C9000C3F89C28C3F8A018C3F8402AC3F8440AF4
:104CA000C3F84C2AC3F8501AC3F8F02BC3F8F40B1E
:104CB000C3F8FC2BC3F8001CC3F8A40D3648C3F896
:104CC000A02DC3F8AC2DC3F8B01D028883783349FA
:104CD0000068334CCA804FEA104C0B723149E280B5
:104CE0002372A1F80320A4F8032063714B712E4CAA
:104CF000CA800B722D492E4DE2802372A1F8032049
:104D0000A4F8032063714B712A4CCA800B722A49A4
:104D1000EA8008802B7281F802C0E2802372A1F839
:104D200003204B71CA800B722449A1F803204B71F8
:104D3000CA800B722249A1F803204B71CA800B7202
:104D40002049088081F802C0A1F803204B71CA8075
:104D50000B721D49088081F802C0A1F803204B7135
:104D6000CA800B721949088081F802C01848A1F85E
:104D700003204B71CA800B721649A0F803204371BF
:104D8000C2800372A1F803204B71CA800B7230BC41
:104D9000704700BF7C36042460010024E801002431
:104DA0000C02002400020024240200241802002423
:104DB000F4010024D0010024DC4504243002002446
:104DC000DC010024B8450424D0450424C44504244F
:104DD00054010024480100243E4B00220B201146C0
:104DE00010B5D3F8D84082B044F00104C3F8D840DD
:104DF000D3F8D84004F001040094009CD3F8D840C4
:104E000044F00204C3F8D840D3F8D83003F00203CA
:104E10000193019B00F0CEFE0B2000F009FF002261
:104E20000C20114600F0C6FE0C2000F001FF00220D
:104E30000D20114600F0BEFE0D2000F0F9FE00220C
:104E40000E20114600F0B6FE0E2000F0F1FE00220A
:104E50000F20114600F0AEFE0F2000F0E9FE002208
:104E60001020114600F0A6FE102000F0E1FE002206
:104E70003C20114600F09EFE3C2000F0D9FE0022AE
:104E80001120114600F096FE112000F0D1FE002204
:104E90003820114600F08EFE382000F0C9FE0022B6
:104EA0003920114600F086FE392000F0C1FE0022B4
:104EB0003A20114600F07EFE3A2000F0B9FE0022B2
:104EC0003B20114600F076FE3B2002B0BDE81040CA
:104ED00000F0AEBE0044025820F01F002031BFF3A6
:104EE0004F8F002907DD064A0144C2F85C022030DA
:104EF0000B1A002BF9DCBFF34F8FBFF36F8F704796
:104F000000ED00E0704700BF08B500F017FEBDE8F7
:104F1000084000F017BF00BF064808B503680BB192
:104F200002F0D6F8044803681BB1BDE8084003F05E
:104F30007DB808BD004E0424F8490424064808B58D
:104F400003680BB102F0C4F8044803681BB1BDE864
:104F5000084003F06BB808BD004E0424F84904244F
:104F6000064808B503680BB102F0B2F804480368BC
:104F70001BB1BDE8084003F059B808BD004E042439
:104F8000F8490424364BDA6A520062D59A6A9A6A62
:104F90009A6A9B6A180600D500BE314B9B6A990637
:104FA00000D500BE2E4B9B6ADA0600D500BE2C4B06
:104FB0009B6A1B0700D500BE294B9B6A980700D54A
:104FC00000BE274B9B6AD90700D500BE244B9B6AC5
:104FD0001A0400D500BE224B9B6A9B0400D500BE7C
:104FE0001F4B9B6AD80400D500BE1D4B9B6A190558
:104FF00000D500BE1A4B9B6A5A0500D500BE184B5F
:105000009B6A9B0500D500BE154B9B6AD80500D551
:1050100000BE134B9B6A990100D500BE104B9B6AE2
:10502000DA0100D500BE0E4B9B6A1B0300D500BE03
:105030000B4B9B6A580300D500BE094B9B6A990332
:1050400000D500BE064B9B6ADA0306D400BE00BE44
:10505000FEE7DB6A9B07FAD5F8E700BEF6E700BF7C
:1050600000ED00E000F076BD00F07ABD0146014899
:105070000BF058B9E84504240A4B9B6803F17843C8
:10508000B3F5003F0BD3084B986848B198680128E6
:1050900006D09868022803D09B680320704701203F
:1050A000704700BF00ED00E0000080382DE9F041BE
:1050B000CEB004464C2200210AA80DF01BF8202295
:1050C000002102A80DF016F8BC2200211EA80DF048
:1050D00011F8022003F0A6FC2368012B4FF0000317
:1050E00054D0534A02250193C820D16A514B21F074
:1050F0000101D162D26A02F0010201929A6942F47E
:1051000040429A619B6903F440430193019B494AE1
:1051100093699B04FCD548490224002201268B6A2E
:1051200004274FF0080823F0030323438B62052371
:1051300016900AA818934FF4803310961794199478
:105140001597CDF86880CDE91B222122CDE91344C3
:10515000CDE90A2304F050F900B1FEE73F22032312
:10516000294602A8CDE9022300220823CDE9042321
:1051700040224023CDE9062340234FF48062CDE94D
:10518000082304F067FC0346B8B1FEE7294A04256A
:105190000093F0209169264B41F44041916192695E
:1051A00002F440420092DA6A42F00102DA62DB6AFB
:1051B00003F001030093009BA9E720224FF48051E4
:1051C00025934FF440152B9280222D931EA83093E7
:1051D000269135914FF48071249234920C223394AD
:1051E000439140F2271120921022CDF884802A9713
:1051F0001F96CDE92E34CDE93B334FF48033CDE912
:1052000022463193002446930623CDE93E45279359
:105210004FF48063094C2C931E94CDE9281204F0BE
:1052200075FE00B1FEE703F023FC4EB0BDE8F0814F
:105230000004005800480258004402580F130F039E
:1052400070B584B0012400F02BFD4FF480764FF050
:105250004052194B68460025ADF800400396CDE951
:10526000012300F03BFD19224FF0404368468DF8C2
:10527000082001938DF80F40ADF80D608DF80140C6
:105280008DF80A5000F02AFD02230B2268468DF8A3
:105290000F508DF801304FF062538DF808200193C4
:1052A000ADF80D408DF80A4000F018FD042000F024
:1052B00005FD04B070BD00BF0E00010330B50D4602
:1052C000044685B0D1E9000184E8030000F006FC43
:1052D000AB79A3B3FFF780FDFDF78AFE0AF088FBE8
:1052E000FFF7FCF92B798BBB6B799BB1BFF34F8F29
:1052F000BFF36F8F2A4B0022C3F85022BFF34F8FAA
:10530000BFF36F8F5A6942F400325A61BFF34F8F77
:10531000BFF36F8F4FF0FF32002300240025694652
:10532000204802928DF80C30CDE900450AF080FF4C
:105330001C480AF0E5FF09F08BFF05B030BD2046A0
:10534000FFF7B4FE2046FFF77BFFC3E7144C0023B2
:10535000C4F88430BFF34F8FD4F8801043F6E07E5A
:10536000C1F34E3CC1F3C9014FEA4C1C0CEA0E00DC
:105370000B4640EA8372013BC4F860225A1CF8D104
:10538000ACF1200C1CF1200FF0D1BFF34F8F6369FB
:1053900043F480336361BFF34F8FBFF36F8FA3E795
:1053A00000ED00E0E845042404F084BC1C4B9B683D
:1053B00003F17842B2F5003F25D3B3F5803F20D307
:1053C00003F16042B2F5003F1FD303F15C42B2F536
:1053D000002F1CD303F17042B2F5902F19D303F1C3
:1053E0004842B2F5803F16D303F18042B2F1806F9C
:1053F00013D303F1E043B3F5000F2CBF08200720BF
:10540000704701207047002070470220704703203A
:10541000704704207047052070470620704700BF82
:1054200000ED00E003480023034A044903600CF048
:105430001FBC00BFE845042400000024054F0008FD
:1054400010B4204C0022204B83B0D4F888101F48A1
:1054500041F47001C4F8881019681D4C41F0010135
:1054600019601A61196808401A4918609A61DA616E
:105470001A629A62DA621A635A639A63DA631A6486
:105480005A64186820F4802018601A66D3F8DC206B
:1054900042F06042C3F8DC20D3F8DC300193019B7A
:1054A00023681940B1F1005F03D20B4B0122C3F80E
:1054B0000821044B4FF000629A6003B05DF8044B82
:1054C000704700BF00ED00E0004402587FEDF6EAAF
:1054D0000010005C0000FFFF008000514B4A036891
:1054E00030B593428BB04FF00004CDE90444CDE9D0
:1054F0000644089404D0464A934249D00BB030BDCC
:10550000444D4FF4C0524448D5F8E03043F0010315
:10551000C5F8E030D5F8E03003F001030093022332
:10552000009904A9CDE904230A23089301F0BEFBE6
:105530004FF40072002304A937480694CDE90423F0
:1055400001F0B4FBD5F8D8302246214643F0006381
:105550006220C5F8D830D5F8D83003F00063019345
:10556000019B00F027FB622000F062FB22462146EF
:10557000632000F01FFB632000F05AFB2246214607
:10558000652000F017FB652000F052FB0BB030BD2A
:10559000204D4FF4404204A9D5F8E03043F0020317
:1055A000C5F8E030D5F8E03003F00203029302239F
:1055B00002981A48CDE904230C23089301F076FBE6
:1055C000D5F8D830224621464A2043F00073C5F86A
:1055D000D830D5F8D83003F000730393039B00F064
:1055E000E9FA4A2000F024FB224621464B2000F035
:1055F000E1FA4B2000F01CFB224621464D2000F032
:10560000D9FA4D2000F014FB0BB030BD000008406B
:1056100000000440004402580000025800040258F0
:1056200000F57171D0F8040409F0ECB8C1EBC103C6
:1056300000EB8303D0F80404D3F8082209F010B972
:10564000C1EBC10300EB8303D0F804049A6C09F0AA
:1056500045B900BFD0F8040409F0E4B9C16810B539
:10566000044619B1022900D0FEE70121D4F8040450
:1056700009F0C2F9D4F80404BDE8104009F094B967
:1056800010B50446D0F8040409F0BAF92268D2F83B
:10569000003E43F00103C2F8003E236A23B1034AEF
:1056A000136943F00603136110BD00BF00ED00E075
:1056B000D0F8040409F0AEB9D0F8040409F0C2B976
:1056C000D0F8040409F0BCB9D0F8040409F0BCB95E
:1056D000D0F8040409F0BAB970B5067804461EB1D2
:1056E000012E30D0002070BD304D0923304AC5F85E
:1056F0000404C0F8985228462E612E63C5E90023A1
:1057000002230222EB600023C5E9062300220023C6
:10571000C5E9082301220123C5E90A2302F0CEFBD3
:1057200000B1FEE78021284603F05CF931464022B3
:10573000284603F02DF980220121284603F028F99C
:105740002678012ECED11B4D09221B4B00216A6009
:1057500002222B600223C5F804442846EB60002394
:10576000C4F898522961C5E9062300220023C5E93F
:105770000823C5E90C2301220023C5E90A2302F00E
:105780009DFB044600B1FEE74FF40071284603F08C
:1057900029F921468022284603F0FAF84FF4BA721C
:1057A0003146284603F0F4F89CE700BFF045042496
:1057B00000000840F849042400000440D0F8980292
:1057C00008B502F011FC032802D8024B185C08BD92
:1057D000022008BD043201089446D0F898021A4607
:1057E00008B5634602F086FF032802D8024B185C16
:1057F00008BD022008BD00BF04320108D0F898029D
:1058000008B502F0B5FF032802D8024B185C08BDAA
:10581000022008BD04320108D0F8980208B503F050
:1058200037F8032802D8024B185C08BD022008BDD7
:1058300004320108D0F8980208B503F06DF8032887
:1058400002D8024B185C08BD022008BD04320108D2
:105850000A06D0F8983206D4C1EBC10103EB8101EE
:1058600091F8FE01704701F07F01C1EBC10103EB2C
:10587000810191F83E007047D0F8980208B502F017
:1058800023FF032802D8024B185C08BD022008BD84
:1058900004320108D0F8980208B502F0D1FF0328BD
:1058A00002D8024B185C08BD022008BD0432010872
:1058B000D0F8980208B502F091FF032802D8024BF5
:1058C000185C08BD022008BD04320108D0F8980217
:1058D00002F0ACBFD0F8C00209F0AABBD0F8C002F9
:1058E00009F0BEBBD0F8C00209F0C6BB704700BFCC
:1058F000D0F8C00209F0ACBBD0F8C00209F0ACBBD4
:10590000D0F8D00308B501F0A3FF032802D8024B5A
:10591000185C08BD022008BD08320108024B02785D
:1059200053F82200704700BF2C320108024B427826
:1059300033F81200704700BF0C3201088CB00A28FF
:1059400014D8DFE800F01523313F4D5B697785936C
:1059500006004D4BD3F8E02042F48062C3F8E0200B
:10596000D3F8E03003F480630B930B9B0CB07047CB
:10597000454BD3F8E02042F00102C3F8E020D3F811
:10598000E03003F001030193019BEFE73E4BD3F8B6
:10599000E02042F00202C3F8E020D3F8E03003F048
:1059A00002030293029BE1E7374BD3F8E02042F079
:1059B0000402C3F8E020D3F8E03003F004030393BB
:1059C000039BD3E7304BD3F8E02042F00802C3F842
:1059D000E020D3F8E03003F008030493049BC5E70C
:1059E000294BD3F8E02042F01002C3F8E020D3F8AE
:1059F000E03003F010030593059BB7E7224BD3F883
:105A0000E02042F02002C3F8E020D3F8E03003F0B9
:105A100020030693069BA9E71B4BD3F8E02042F036
:105A20004002C3F8E020D3F8E03003F040030793CE
:105A3000079B9BE7144BD3F8E02042F08002C3F8A9
:105A4000E020D3F8E03003F080030893089B8DE753
:105A50000D4BD3F8E02042F48072C3F8E020D3F875
:105A6000E03003F480730993099B7FE7064BD3F87A
:105A7000E02042F40072C3F8E020D3F8E03003F4F1
:105A800000730A930A9B71E700440258704700BFF5
:105A90000F4B1B780BB90120704710B504464FF42B
:105AA0007A700C4AB0FBF3F31068B0FBF3F000F02F
:105AB000E1F80F2C00D808B1012010BD00222146CA
:105AC0004FF0FF3000F076F8034B00201C6010BD53
:105AD000440200243C0200244802002438B503207C
